{
  "_format": "hh-sol-artifact-1",
  "contractName": "Box",
  "sourceName": "contracts/Box.sol",
  "abi": [
    {
      "inputs": [
        {
          "internalType": "address",
          "name": "target",
          "type": "address"
        }
      ],
      "name": "AddressEmptyCode",
      "type": "error"
    },
    {
      "inputs": [
        {
          "internalType": "address",
          "name": "implementation",
          "type": "address"
        }
      ],
      "name": "ERC1967InvalidImplementation",
      "type": "error"
    },
    {
      "inputs": [],
      "name": "ERC1967NonPayable",
      "type": "error"
    },
    {
      "inputs": [],
      "name": "FailedCall",
      "type": "error"
    },
    {
      "inputs": [],
      "name": "InvalidInitialization",
      "type": "error"
    },
    {
      "inputs": [],
      "name": "NotInitializing",
      "type": "error"
    },
    {
      "inputs": [
        {
          "internalType": "address",
          "name": "owner",
          "type": "address"
        }
      ],
      "name": "OwnableInvalidOwner",
      "type": "error"
    },
    {
      "inputs": [
        {
          "internalType": "address",
          "name": "account",
          "type": "address"
        }
      ],
      "name": "OwnableUnauthorizedAccount",
      "type": "error"
    },
    {
      "inputs": [],
      "name": "UUPSUnauthorizedCallContext",
      "type": "error"
    },
    {
      "inputs": [
        {
          "internalType": "bytes32",
          "name": "slot",
          "type": "bytes32"
        }
      ],
      "name": "UUPSUnsupportedProxiableUUID",
      "type": "error"
    },
    {
      "anonymous": false,
      "inputs": [
        {
          "indexed": false,
          "internalType": "uint64",
          "name": "version",
          "type": "uint64"
        }
      ],
      "name": "Initialized",
      "type": "event"
    },
    {
      "anonymous": false,
      "inputs": [
        {
          "indexed": true,
          "internalType": "address",
          "name": "previousOwner",
          "type": "address"
        },
        {
          "indexed": true,
          "internalType": "address",
          "name": "newOwner",
          "type": "address"
        }
      ],
      "name": "OwnershipTransferred",
      "type": "event"
    },
    {
      "anonymous": false,
      "inputs": [
        {
          "indexed": true,
          "internalType": "address",
          "name": "implementation",
          "type": "address"
        }
      ],
      "name": "Upgraded",
      "type": "event"
    },
    {
      "inputs": [],
      "name": "UPGRADE_INTERFACE_VERSION",
      "outputs": [
        {
          "internalType": "string",
          "name": "",
          "type": "string"
        }
      ],
      "stateMutability": "view",
      "type": "function"
    },
    {
      "inputs": [
        {
          "internalType": "uint256",
          "name": "objects",
          "type": "uint256"
        },
        {
          "internalType": "address",
          "name": "multisig",
          "type": "address"
        }
      ],
      "name": "initialize",
      "outputs": [],
      "stateMutability": "nonpayable",
      "type": "function"
    },
    {
      "inputs": [],
      "name": "numberOfObjects",
      "outputs": [
        {
          "internalType": "uint256",
          "name": "",
          "type": "uint256"
        }
      ],
      "stateMutability": "view",
      "type": "function"
    },
    {
      "inputs": [],
      "name": "owner",
      "outputs": [
        {
          "internalType": "address",
          "name": "",
          "type": "address"
        }
      ],
      "stateMutability": "view",
      "type": "function"
    },
    {
      "inputs": [],
      "name": "proxiableUUID",
      "outputs": [
        {
          "internalType": "bytes32",
          "name": "",
          "type": "bytes32"
        }
      ],
      "stateMutability": "view",
      "type": "function"
    },
    {
      "inputs": [],
      "name": "removeObject",
      "outputs": [],
      "stateMutability": "nonpayable",
      "type": "function"
    },
    {
      "inputs": [],
      "name": "renounceOwnership",
      "outputs": [],
      "stateMutability": "nonpayable",
      "type": "function"
    },
    {
      "inputs": [
        {
          "internalType": "address",
          "name": "newOwner",
          "type": "address"
        }
      ],
      "name": "transferOwnership",
      "outputs": [],
      "stateMutability": "nonpayable",
      "type": "function"
    },
    {
      "inputs": [
        {
          "internalType": "address",
          "name": "newImplementation",
          "type": "address"
        },
        {
          "internalType": "bytes",
          "name": "data",
          "type": "bytes"
        }
      ],
      "name": "upgradeToAndCall",
      "outputs": [],
      "stateMutability": "payable",
      "type": "function"
    }
  ],
  "bytecode": "0x60a06040523073ffffffffffffffffffffffffffffffffffffffff1660809073ffffffffffffffffffffffffffffffffffffffff16815250348015604257600080fd5b506080516113cc61006c600039600081816105370152818161058c015261074701526113cc6000f3fe6080604052600436106100865760003560e01c8063715018a611610059578063715018a6146101145780638da5cb5b1461012b578063ad3cb1cc14610156578063da35a26f14610181578063f2fde38b146101aa57610086565b80632102ffaa1461008b5780634f1ef286146100a257806352d1902d146100be578063658504d1146100e9575b600080fd5b34801561009757600080fd5b506100a06101d3565b005b6100bc60048036038101906100b79190610f74565b610233565b005b3480156100ca57600080fd5b506100d3610252565b6040516100e09190610fe9565b60405180910390f35b3480156100f557600080fd5b506100fe610285565b60405161010b919061101d565b60405180910390f35b34801561012057600080fd5b5061012961028b565b005b34801561013757600080fd5b5061014061029f565b60405161014d9190611047565b60405180910390f35b34801561016257600080fd5b5061016b6102d7565b60405161017891906110e1565b60405180910390f35b34801561018d57600080fd5b506101a860048036038101906101a3919061112f565b610310565b005b3480156101b657600080fd5b506101d160048036038101906101cc919061116f565b6104af565b005b600160005411610218576040517f08c379a000000000000000000000000000000000000000000000000000000000815260040161020f906111e8565b60405180910390fd5b600160008082825461022a9190611237565b92505081905550565b61023b610535565b6102448261061b565b61024e8282610626565b5050565b600061025c610745565b7f360894a13ba1a3210667c828492db98dca3e2076cc3735a920a3ca505d382bbc60001b905090565b60005481565b6102936107cc565b61029d6000610853565b565b6000806102aa61092a565b90508060000160009054906101000a900473ffffffffffffffffffffffffffffffffffffffff1691505090565b6040518060400160405280600581526020017f352e302e3000000000000000000000000000000000000000000000000000000081525081565b600061031a610952565b905060008160000160089054906101000a900460ff1615905060008260000160009054906101000a900467ffffffffffffffff1690506000808267ffffffffffffffff161480156103685750825b9050600060018367ffffffffffffffff1614801561039d575060003073ffffffffffffffffffffffffffffffffffffffff163b145b9050811580156103ab575080155b156103e2576040517ff92ee8a900000000000000000000000000000000000000000000000000000000815260040160405180910390fd5b60018560000160006101000a81548167ffffffffffffffff021916908367ffffffffffffffff16021790555083156104325760018560000160086101000a81548160ff0219169083151502179055505b61043a61097a565b61044386610984565b8660008190555083156104a65760008560000160086101000a81548160ff0219169083151502179055507fc7f505b2f371ae2175ee4913f4499e1f2633a7b5936321eed1cdaeb6115181d2600160405161049d91906112c4565b60405180910390a15b50505050505050565b6104b76107cc565b600073ffffffffffffffffffffffffffffffffffffffff168173ffffffffffffffffffffffffffffffffffffffff16036105295760006040517f1e4fbdf70000000000000000000000000000000000000000000000000000000081526004016105209190611047565b60405180910390fd5b61053281610853565b50565b7f000000000000000000000000000000000000000000000000000000000000000073ffffffffffffffffffffffffffffffffffffffff163073ffffffffffffffffffffffffffffffffffffffff1614806105e257507f000000000000000000000000000000000000000000000000000000000000000073ffffffffffffffffffffffffffffffffffffffff166105c9610998565b73ffffffffffffffffffffffffffffffffffffffff1614155b15610619576040517fe07c8dba00000000000000000000000000000000000000000000000000000000815260040160405180910390fd5b565b6106236107cc565b50565b8173ffffffffffffffffffffffffffffffffffffffff166352d1902d6040518163ffffffff1660e01b8152600401602060405180830381865afa92505050801561068e57506040513d601f19601f8201168201806040525081019061068b919061130b565b60015b6106cf57816040517f4c9c8ce30000000000000000000000000000000000000000000000000000000081526004016106c69190611047565b60405180910390fd5b7f360894a13ba1a3210667c828492db98dca3e2076cc3735a920a3ca505d382bbc60001b811461073657806040517faa1d49a400000000000000000000000000000000000000000000000000000000815260040161072d9190610fe9565b60405180910390fd5b61074083836109ef565b505050565b7f000000000000000000000000000000000000000000000000000000000000000073ffffffffffffffffffffffffffffffffffffffff163073ffffffffffffffffffffffffffffffffffffffff16146107ca576040517fe07c8dba00000000000000000000000000000000000000000000000000000000815260040160405180910390fd5b565b6107d4610a62565b73ffffffffffffffffffffffffffffffffffffffff166107f261029f565b73ffffffffffffffffffffffffffffffffffffffff161461085157610815610a62565b6040517f118cdaa70000000000000000000000000000000000000000000000000000000081526004016108489190611047565b60405180910390fd5b565b600061085d61092a565b905060008160000160009054906101000a900473ffffffffffffffffffffffffffffffffffffffff169050828260000160006101000a81548173ffffffffffffffffffffffffffffffffffffffff021916908373ffffffffffffffffffffffffffffffffffffffff1602179055508273ffffffffffffffffffffffffffffffffffffffff168173ffffffffffffffffffffffffffffffffffffffff167f8be0079c531659141344cd1fd0a4f28419497f9722a3daafe3b4186f6b6457e060405160405180910390a3505050565b60007f9016d09d72d40fdae2fd8ceac6b6234c7706214fd39c1cd1e609a0528c199300905090565b60007ff0c57e16840df040f15088dc2f81fe391c3923bec73e23a9662efc9c229c6a00905090565b610982610a6a565b565b61098c610a6a565b61099581610aaa565b50565b60006109c67f360894a13ba1a3210667c828492db98dca3e2076cc3735a920a3ca505d382bbc60001b610b30565b60000160009054906101000a900473ffffffffffffffffffffffffffffffffffffffff16905090565b6109f882610b3a565b8173ffffffffffffffffffffffffffffffffffffffff167fbc7cd75a20ee27fd9adebab32041f755214dbc6bffa90cc0225b39da2e5c2d3b60405160405180910390a2600081511115610a5557610a4f8282610c07565b50610a5e565b610a5d610c8b565b5b5050565b600033905090565b610a72610cc8565b610aa8576040517fd7e6bcf800000000000000000000000000000000000000000000000000000000815260040160405180910390fd5b565b610ab2610a6a565b600073ffffffffffffffffffffffffffffffffffffffff168173ffffffffffffffffffffffffffffffffffffffff1603610b245760006040517f1e4fbdf7000000000000000000000000000000000000000000000000000000008152600401610b1b9190611047565b60405180910390fd5b610b2d81610853565b50565b6000819050919050565b60008173ffffffffffffffffffffffffffffffffffffffff163b03610b9657806040517f4c9c8ce3000000000000000000000000000000000000000000000000000000008152600401610b8d9190611047565b60405180910390fd5b80610bc37f360894a13ba1a3210667c828492db98dca3e2076cc3735a920a3ca505d382bbc60001b610b30565b60000160006101000a81548173ffffffffffffffffffffffffffffffffffffffff021916908373ffffffffffffffffffffffffffffffffffffffff16021790555050565b60606000808473ffffffffffffffffffffffffffffffffffffffff1684604051610c31919061137f565b600060405180830381855af49150503d8060008114610c6c576040519150601f19603f3d011682016040523d82523d6000602084013e610c71565b606091505b5091509150610c81858383610ce8565b9250505092915050565b6000341115610cc6576040517fb398979f00000000000000000000000000000000000000000000000000000000815260040160405180910390fd5b565b6000610cd2610952565b60000160089054906101000a900460ff16905090565b606082610cfd57610cf882610d77565b610d6f565b60008251148015610d25575060008473ffffffffffffffffffffffffffffffffffffffff163b145b15610d6757836040517f9996b315000000000000000000000000000000000000000000000000000000008152600401610d5e9190611047565b60405180910390fd5b819050610d70565b5b9392505050565b600081511115610d8a5780518082602001fd5b6040517fd6bda27500000000000000000000000000000000000000000000000000000000815260040160405180910390fd5b6000604051905090565b600080fd5b600080fd5b600073ffffffffffffffffffffffffffffffffffffffff82169050919050565b6000610dfb82610dd0565b9050919050565b610e0b81610df0565b8114610e1657600080fd5b50565b600081359050610e2881610e02565b92915050565b600080fd5b600080fd5b6000601f19601f8301169050919050565b7f4e487b7100000000000000000000000000000000000000000000000000000000600052604160045260246000fd5b610e8182610e38565b810181811067ffffffffffffffff82111715610ea057610e9f610e49565b5b80604052505050565b6000610eb3610dbc565b9050610ebf8282610e78565b919050565b600067ffffffffffffffff821115610edf57610ede610e49565b5b610ee882610e38565b9050602081019050919050565b82818337600083830152505050565b6000610f17610f1284610ec4565b610ea9565b905082815260208101848484011115610f3357610f32610e33565b5b610f3e848285610ef5565b509392505050565b600082601f830112610f5b57610f5a610e2e565b5b8135610f6b848260208601610f04565b91505092915050565b60008060408385031215610f8b57610f8a610dc6565b5b6000610f9985828601610e19565b925050602083013567ffffffffffffffff811115610fba57610fb9610dcb565b5b610fc685828601610f46565b9150509250929050565b6000819050919050565b610fe381610fd0565b82525050565b6000602082019050610ffe6000830184610fda565b92915050565b6000819050919050565b61101781611004565b82525050565b6000602082019050611032600083018461100e565b92915050565b61104181610df0565b82525050565b600060208201905061105c6000830184611038565b92915050565b600081519050919050565b600082825260208201905092915050565b60005b8381101561109c578082015181840152602081019050611081565b60008484015250505050565b60006110b382611062565b6110bd818561106d565b93506110cd81856020860161107e565b6110d681610e38565b840191505092915050565b600060208201905081810360008301526110fb81846110a8565b905092915050565b61110c81611004565b811461111757600080fd5b50565b60008135905061112981611103565b92915050565b6000806040838503121561114657611145610dc6565b5b60006111548582860161111a565b925050602061116585828601610e19565b9150509250929050565b60006020828403121561118557611184610dc6565b5b600061119384828501610e19565b91505092915050565b7f4e6f7468696e6720696e73696465000000000000000000000000000000000000600082015250565b60006111d2600e8361106d565b91506111dd8261119c565b602082019050919050565b60006020820190508181036000830152611201816111c5565b9050919050565b7f4e487b7100000000000000000000000000000000000000000000000000000000600052601160045260246000fd5b600061124282611004565b915061124d83611004565b925082820390508181111561126557611264611208565b5b92915050565b6000819050919050565b600067ffffffffffffffff82169050919050565b6000819050919050565b60006112ae6112a96112a48461126b565b611289565b611275565b9050919050565b6112be81611293565b82525050565b60006020820190506112d960008301846112b5565b92915050565b6112e881610fd0565b81146112f357600080fd5b50565b600081519050611305816112df565b92915050565b60006020828403121561132157611320610dc6565b5b600061132f848285016112f6565b91505092915050565b600081519050919050565b600081905092915050565b600061135982611338565b6113638185611343565b935061137381856020860161107e565b80840191505092915050565b600061138b828461134e565b91508190509291505056fea26469706673582212201f831d810f222595a7964e5368e90ff7ed77f8e602485a92223285952368575664736f6c634300081b0033",
  "linkReferences": {},
  "deployedLinkReferences": {}
}